:100000000C9482000C9419060C946D060C949F00BD
:100010000C94A5050C949F000C949F000C949F00D9
:100020000C949F000C949F000C949F000C949F00D4
:100030000C949F000C94C1060C949F000C949F009C
:100040000C94C6000C949F000C949F000C949F008D
:100050000C949F0021089707AE07C507DC07F3073C
:100060000A08490849084908490849084908490847
:1000700049084908490849084908490849084908F8
:1000800049084908490849084908490849084908E8
:1000900049084908490849084908490849084908D8
:1000A00049084908490849084908490849084908C8
:1000B00049084908490802074908490805070B0784
:1000C0004908490849084908490869078007490853
:1000D0004908490849082207490808073907490813
:1000E0004908E00649084908FF060A0920094609A7
:1000F0009F0C9F0C5A09060A240A380A9F0C700AA2
:10010000790C9A0C11241FBECFE5D8E0DEBFCDBF1D
:1001100010E0A0E6B0E0E6E5F3E202C005900D9243
:10012000A03FB107D9F721E0A0EFB0E001C01D92D8
:10013000A635B207E1F70E9479080C94A9110C9436
:100140000000AB9AAA98A89AA9980895AA9AAB9881
:10015000A99AA8980895A89AA998AB98AA980895DA
:10016000AB9AAA98A898A9980895AB98AA98A89825
:10017000A9980895AB9AAA9A0895A89AA99A089559
:10018000AB9AAA980895A89AA99808951F920F92D9
:100190000FB60F9211248F939F9385B1843138F459
:1001A00080E991E09BBD8ABD99BD88BD04C01BBCA0
:1001B0001ABC19BC18BC9F918F910F900FBE0F9065
:1001C0001F9018955D9BFECF8CB90895CF93DF9358
:1001D000EC018881882331F021960E94E200899108
:1001E0008111FBCFDF91CF9108950F931F93CF9390
:1001F000DF93CDB7DEB72F970FB6F894DEBF0FBEF3
:10020000CDBF9F938F9380E790E09F938F938E0154
:100210000F5F1F4F1F930F930E94D80EC8010E94BB
:10022000E60080ED90E00E94E6000F900F900F90A6
:100230000F900F900F902F960FB6F894DEBF0FBE61
:10024000CDBFDF91CF911F910F9108958AB1886141
:100250008AB980B58E6880BD87E689B910BC579A87
:10026000089599B329B339B349B359B369B389B37D
:1002700091FD15C022FD16C033FD17C044FD18C006
:1002800055FD19C066FD1AC0992787FD9095809588
:100290009095892F881F8827881F90E0089580E017
:1002A00090E0089580E090E0089580E090E0089567
:1002B00080E090E0089580E090E0089580E090E094
:1002C0000895BC01882777FD8095982F0E94BB0D6B
:1002D0006093160170931701809318019093190190
:1002E0006093120170931301809314019093150190
:1002F00060930E0170930F01809310019093110190
:10030000089580E090E0A0E2B1E48093160190931C
:100310001701A0931801B0931901109212011092C5
:100320001301109214011092150180930E01909305
:100330000F01A0931001B0931101089585B7836058
:1003400085BF8BB780648BBF84E081BB82BB789410
:10035000089585B78C6085BF8BB780688BBF88E0B8
:1003600081BB82BB7894089582EA8FBD89E18EBDFE
:100370008FE891E097BD86BD1CBC1DBC83E790E073
:100380000E94E6000895D198D298D398D498D59831
:10039000D698D79808958EE483BD85B5886085BDCD
:1003A00089B7806889BF85B5876085BD78948BE9FA
:1003B00090E00E94E6000895CF92DF92EF92FF92C4
:1003C00081E090E0909301018093000120E030E013
:1003D0004FEA53E46091FC007091FD008091FE00B3
:1003E0009091FF000E941C0D882394F50F2EC12CC4
:1003F000D12CF0E2EF2EF1E4FF2EF02D0E94BD0093
:10040000C0921601D0921701E0921801F0921901E2
:100410001092120110921301109214011092150102
:10042000C0920E01D0920F01E0921001F0921101E2
:1004300020E030E04FEA53E46091FC007091FD0051
:100440008091FE009091FF000E941C0D8823B4F261
:1004500010920101109200011092FC001092FD0018
:100460001092FE001092FF000E94B50080E090E024
:100470000E946101FF90EF90DF90CF900895CF929E
:10048000DF92EF92FF9281E090E0909303018093DE
:10049000020120E030E045EA53E46091F8007091F9
:1004A000F9008091FA009091FB000E941C0D8823B6
:1004B00094F50F2EC12CD12CF0E2EF2EF1E4FF2E9B
:1004C000F02D0E94BA00C0921601D0921701E0925E
:1004D0001801F092190110920E0110920F01109262
:1004E000100110921101C0921201D0921301E092FA
:1004F0001401F092150120E030E045EA53E46091E8
:10050000F8007091F9008091FA009091FB000E9430
:100510001C0D8823B4F21092030110920201109274
:10052000F8001092F9001092FA001092FB000E945D
:10053000B50080E090E00E946101FF90EF90DF90B5
:10054000CF9008952F923F924F925F926F927F9239
:100550008F929F92AF92BF92CF92DF92EF92FF92D3
:10056000CF93DF9300D000D0CDB7DEB720914E01FE
:1005700030914F0140915001509151016091120111
:100580007091130180911401909115010E94B70C94
:100590004B015C0160933F017093400180934101E6
:1005A00090934201209152013091530140915401A6
:1005B0005091550160910E0170910F0180911001D1
:1005C000909111010E94B70C6B017C016093360180
:1005D0007093370180933801909339012090640023
:1005E0003090650040906600509067006091F20086
:1005F0007091F300882777FD8095982F0E94BB0D9E
:1006000069837A838B839C83A2019101C501B40124
:100610000E946F0E9B01AC0169817A818B819C8164
:100620000E94B80C0E94880D3B017093F300609308
:10063000F2006091F0007091F100882777FD8095BD
:10064000982F0E94BB0D4B015C01A2019101C701D3
:10065000B6010E946F0E9B01AC01C501B4010E945E
:10066000B80C0E94880D9B017093F1006093F0001C
:1006700077202CF41092F3001092F2000BC080E966
:10068000681681E0780634F08FE891E09093F300EB
:100690008093F20033232CF41092F1001092F000BA
:1006A00009C02039314034F08FE891E09093F10097
:1006B0008093F0008091F2009091F3009BBD8ABD81
:1006C0008091F0009091F10099BD88BD20E030E06C
:1006D000A9016091360170913701809138019091A4
:1006E00039010E941C0D88233CF40E94BA008FE857
:1006F00091E099BD88BD02C00E94C00020E030E0BA
:10070000A90160913F017091400180914101909158
:1007100042010E941C0D88233CF40E94BD008FE81A
:1007200091E09BBD8ABD02C00E94C3000F900F9054
:100730000F900F90DF91CF91FF90EF90DF90CF90CF
:10074000BF90AF909F908F907F906F905F904F90F1
:100750003F902F9008952F923F924F925F926F9209
:100760007F928F929F92AF92BF92CF92DF92EF9241
:10077000FF920F931F93CF93DF9329B389B38470B4
:1007800090E0039641E030E0079708F040E0842EC7
:10079000932E89B3887090E0079641E030E00F9780
:1007A00008F040E0C42ED32E89B3807190E00F96FC
:1007B00041E030E04F9708F040E0242E332E89B31B
:1007C000807290E04F9641E030E0CF9708F040E033
:1007D000E42EF32E89B3807490E0CF9641E030E0B0
:1007E0008F37910508F040E0042F132F89B38078EC
:1007F00090E081589F4F41E030E08F3F910508F035
:1008000040E0C42FD32F5401AA0CBB1C227030E04F
:100810002F5F3F4F81E090E02330310510F080E002
:1008200090E0A80EB91EB601660F771F6C0D7D1DF6
:100830006A0D7B1DC101880F991F880F991F680FD2
:10084000791FC701880F991F880F991F8E0D9F1D53
:10085000680F791FC801880F991F800F911F880F9B
:10086000991F680F791FCE01880F991F880F991F54
:10087000880F991F8C1B9D0B680F791F882777FDA8
:100880008095982F0E94BB0D2B013C01B501681982
:1008900079096C0D7D1D620D731D6E0D7F1D600F3E
:1008A000711F6C0F7D1F882777FD8095982F0E9400
:1008B000BB0D9B01AC01C301B2010E94200DDF9171
:1008C000CF911F910F91FF90EF90DF90CF90BF904D
:1008D000AF909F908F907F906F905F904F903F90E0
:1008E0002F9008954F925F926F927F928F929F9276
:1008F000AF92BF92CF92DF92EF92FF9220E030E072
:1009000040E850E40E94B70C4B015C016091080183
:100910007091090180910A0190910B010E94BB0D19
:100920002B013C01209160003091610040916200F8
:1009300050916300C501B4010E946F0E6B017C01F0
:1009400020912201309123014091240150912501F1
:10095000C301B2010E946F0E9B01AC01C701B60139
:100960000E94B80C6B017C0160910401709105013B
:1009700080910601909107010E94BB0D9B01AC0183
:10098000C501B4010E94B70C20911E0130911F01D6
:1009900040912001509121010E946F0E9B01AC01FA
:1009A000C701B6010E94B80C6B017C01A301920142
:1009B000C501B4010E94B80C0E94880D6093080123
:1009C0007093090180930A0190930B01C501B40152
:1009D0000E94880D609304017093050180930601C5
:1009E0009093070120E030E048EC51ECC701B601DC
:1009F0000E941C0D8823B4F020E030E048EC51E464
:100A0000C701B6010E946B0E18160CF444C020E01A
:100A100030E0A901C701B6010E941C0D88230CF02B
:100A200042C008C00F2EC12CD12CF8ECEF2EF1ECF7
:100A3000FF2EF02D8090160190901701A0901801C4
:100A4000B09019018092120190921301A0921401AA
:100A5000B0921501C701B6010E94880D9B01772352
:100A600024F422273327261B370BB901882777FD6B
:100A70008095982F0E94BB0D9B01AC01C501B4016C
:100A80000E94B70C60930E0170930F0180931001C8
:100A90009093110138C00F2EC12CD12CF8ECEF2E01
:100AA000F1E4FF2EF02D8090160190901701A09098
:100AB0001801B090190180920E0190920F01A0923E
:100AC0001001B0921101C701B6010E94880D9B016F
:100AD000772324F422273327261B370BB9018827D5
:100AE00077FD8095982F0E94BB0D9B01AC01C5013D
:100AF000B4010E94B70C60931201709313018093AC
:100B0000140190931501C701B601FF90EF90DF909B
:100B1000CF90BF90AF909F908F907F906F905F909D
:100B20004F9008950E94AB030E94880D7093490175
:100B300060934801882777FD8095982F0E94BB0D10
:100B400040E050E00E94720408951F920F920FB689
:100B50000F9211242F933F934F935F936F937F9343
:100B60008F939F93AF93BF93EF93FF9314BC8091A8
:100B70000C0190910D01019690930D0180930C0151
:100B8000039709F045C080913A0190913B01A091F3
:100B90003C01B0913D0180934E0190934F01A09391
:100BA0005001B093510180914A0190914B01A09165
:100BB0004C01B0914D018093520190935301A09349
:100BC0005401B093550110923A0110923B011092DA
:100BD0003C0110923D0110924A0110924B0110927B
:100BE0004C0110924D0110920D0110920C010E94C7
:100BF000A2028091F6009091F700019749F480914C
:100C0000F4009091F50001969093F5008093F40024
:100C1000FF91EF91BF91AF919F918F917F916F91D4
:100C20005F914F913F912F910F900FBE0F901F90AA
:100C300018951F920F920FB60F9211242F933F9386
:100C40004F935F936F937F938F939F93AF93BF93D4
:100C5000EF93FF9320E030E040E85FE360914A01CA
:100C600070914B0180914C0190914D010E94B80C04
:100C700060934A0170934B0180934C0190934D0116
:100C800080910001909101010197B1F420E030E0E2
:100C900040E85FE36091FC007091FD008091FE00F0
:100CA0009091FF000E94B80C6093FC007093FD00CF
:100CB0008093FE009093FF00FF91EF91BF91AF9161
:100CC0009F918F917F916F915F914F913F912F9164
:100CD0000F900FBE0F901F9018951F920F920FB696
:100CE0000F9211242F933F934F935F936F937F93B2
:100CF0008F939F93AF93BF93EF93FF9320E030E0E8
:100D000040E85FE360913A0170913B0180913C01C2
:100D100090913D010E94B80C60933A0170933B01A1
:100D200080933C0190933D018091020190910301D9
:100D30000197B1F420E030E040E85FE36091F80013
:100D40007091F9008091FA009091FB000E94B80C1C
:100D50006093F8007093F9008093FA009093FB0081
:100D6000FF91EF91BF91AF919F918F917F916F9183
:100D70005F914F913F912F910F900FBE0F901F9059
:100D800018951F920F920FB60F9211242F933F9335
:100D90004F935F936F937F938F939F93AF93BF9383
:100DA000CF93EF93FF93CCB18C2F90E0FC01F097A1
:100DB000EB34F10508F06DC1E65DFF4F0C94D20EE7
:100DC0000E94A10080E090E0A0E2B1E480931601CF
:100DD00090931701A0931801B09319018093120109
:100DE00090931301A0931401B093150180930E0109
:100DF00090930F01A0931001B09311014EC10E9476
:100E0000A6004BC10E94B00048C10E94AB0045C182
:100E10000E94B50042C120E030E040E85FE360910D
:100E20000E0170910F0180911001909111010E94AB
:100E3000B80C60930E0170930F0180931001909392
:100E400011012BC120E030E040E85FE36091120126
:100E50007091130180911401909115010E94B80CBA
:100E60006093120170931301809314019093150104
:100E700014C1609116017091170180911801909131
:100E800019010E94880DCB010E94F50085EB90E0CE
:100E90000E94E60060914E0170914F0180915001D7
:100EA000909151010E94880DCB010E94F50088EBC2
:100EB00090E00E94E6006091520170915301809190
:100EC0005401909155010E94880DCB010E94F500BC
:100ED000E4C020E030E040E251E4609116017091FE
:100EE000170180911801909119010E94B80C60932C
:100EF0001601709317018093180190931901CDC0CA
:100F000020E030E040E251E4609116017091170159
:100F100080911801909119010E94B70C60931601FD
:100F2000709317018093180190931901B6C020E0C7
:100F300030E040E85FE3609164007091650080916B
:100F40006600909167000E94B80C609364007093F3
:100F5000650080936600909367009FC020E030E0BA
:100F600040E05FE360912A0170912B0180912C0198
:100F700090912D010E94B80C60932A0170932B016F
:100F800080932C0190932D0188C02AE037ED43E235
:100F90005CE3609126017091270180912801909176
:100FA00029010E94B80C6093260170932701809359
:100FB00028019093290171C020E030E040E85FE310
:100FC0006091600070916100809162009091630077
:100FD0000E94B70C60936000709361008093620080
:100FE000909363005AC020E030E040E05FE36091FE
:100FF00022017091230180912401909125010E948A
:10100000B70C609322017093230180932401909385
:10101000250143C020E030E040E85FE360911E011D
:1010200070911F0180912001909121010E94B70CC5
:1010300060931E0170931F01809320019093210102
:101040002CC0609164007091650080916600909161
:1010500067000E94880DCB010E94F50060912A0173
:1010600070912B0180912C0190912D010E94880D8F
:10107000CB010E94F50060912601709127018091BB
:101080002801909129010E94880DCB010E94F50052
:1010900004C08BEB90E00E94E600CCB9FF91EF9189
:1010A000CF91BF91AF919F918F917F916F915F9100
:1010B0004F913F912F910F900FBE0F901F90189559
:1010C00080E090E0A0EEB0E48093120190931301D1
:1010D000A0931401B093150180E090E0A0E3B1E487
:1010E00080930E0190930F01A0931001B093110112
:1010F0000895BA9A0E9426010E94C3010E94B40179
:101100000E94A9010E949E010E94CB0180E381BB45
:101110000E94A1001BBC1ABC19BC18BCC0901601CF
:10112000D0901701E0901801F0901901C0921201BF
:10113000D0921301E0921401F0921501C0920E01B9
:10114000D0920F01E0921001F092110120914E0116
:1011500030914F014091500150915101C701B601AA
:101160000E94B70C6093440170934501809346013F
:1011700090934701209152013091530140915401C5
:1011800050915501C701B6010E94B70C60931A0136
:1011900070931B0180931C0190931D0181EC90E0E2
:1011A0000E94E60081E080933E0102E01BE0C1E086
:1011B000D0E00F2EC12CD12CF0E2EF2EF1E4FF2E67
:1011C000F02D6894442443F80F2EF7E06F2EF02D95
:1011D0000F2EFAE03F2EF02D0F2E812C912CF0EAED
:1011E000AF2EF0E4BF2EF02D0F2EF6E07F2EF02D67
:1011F0000F2EF5E02F2EF02D5524539480913E01B3
:1012000090E08D30910508F09AC3FC01EB58FF4F38
:101210000C94D20E0E94AB0320E030E040E850E492
:101220000E941C0D811109C082ED90E00E94E60031
:101230000E94A10050923E01E1CF10923E01DECF0C
:101240000E94AB0320E030E040E850E40E941C0D17
:1012500081110DC00E94BD000E94BA000E94DC01F5
:1012600085EE90E00E94E60000933E01C7CFC09259
:101270001601D0921701E0921801F09219018AE04C
:1012800090E00E94610150923E01B8CF0E9431016E
:10129000019719F420923E01B1CFC0921601D0926D
:1012A0001701E0921801F09219010E949205009333
:1012B0003E01A4CF1092F8001092F9001092FA00AB
:1012C0001092FB00D0930301C09302010E94A10081
:1012D000C0921601D0921701E0921801F092190104
:1012E0000E94920520E030E046E953E46091F80066
:1012F0007091F9008091FA009091FB000E941C0D02
:10130000882324F31092F8001092F9001092FA004A
:101310001092FB00D093F700C093F6008091F40088
:101320009091F500803891055CF40E94BD000E9408
:10133000BA008091F4009091F50080389105ACF3EB
:101340001092F7001092F6001092F5001092F4003F
:101350000E94DC01D093F700C093F6008091F40066
:101360009091F500823491050CF0ECC20E94BD0012
:101370000E94BA008091F4009091F50082349105AA
:10138000ACF31092F7001092F6001092F500109254
:10139000F400D0930301C09302011092F800109260
:1013A000F9001092FA001092FB000E94A6008092B1
:1013B000160190921701A0921801B092190185E0D0
:1013C00090E00E94610120E030E048EC52E460913E
:1013D000F8007091F9008091FA009091FB000E9452
:1013E0001C0D882314F31092F8001092F90010924B
:1013F000FA001092FB001092030110920201709209
:101400003E01D093F700C093F600F8CE8091F4002F
:101410009091F500823991401CF40E946008EECE54
:101420000E9460080E943101019709F0E7CE0E94F6
:101430003F021092F7001092F6001092F500109201
:10144000F40040923E01DACE0E943101019719F476
:1014500030923E01D3CEC0921601D0921701E09295
:101460001801F09219010E94920560923E01C6CEC9
:101470000E943101019739F5D093F700C093F6002F
:101480008091F4009091F5008E3791058CF4C09214
:101490001601D0921701E0921801F09219010E94F2
:1014A00092058091F4009091F5008E3791057CF3C0
:1014B0001092F7001092F6001092F5001092F400CE
:1014C00060923E019BCEC0921601D0921701E0922D
:1014D0001801F09219010E94920540923E018ECEB1
:1014E000D093F700C093F6008091F4009091F5003E
:1014F000863C91055CF40E94BD000E94BA00809178
:10150000F4009091F500863C9105ACF31092F70041
:101510001092F6001092F5001092F4001092F8006C
:101520001092F9001092FA001092FB00D093030180
:10153000C09302010E94A100C0921601D09217012F
:10154000E0921801F09219018AE090E00E94610196
:1015500020E030E04AEF53E46091F8007091F90028
:101560008091FA009091FB000E941C0D882314F3D7
:1015700010920301109202011092F8001092F900EB
:101580001092FA001092FB00D093F700C093F6007F
:101590008091F4009091F500803891055CF40E94F0
:1015A000BD000E94BA008091F4009091F50080384F
:1015B0009105ACF31092F7001092F6001092F5002E
:1015C0001092F4000E94DC01D093F700C093F60063
:1015D0008091F4009091F500803891055CF40E94B0
:1015E000BD000E94BA008091F4009091F50080380F
:1015F0009105ACF31092F7001092F6001092F500EE
:101600001092F4001092F8001092F9001092FA0073
:101610001092FB00D0930301C09302010E94A1002D
:10162000C0921601D0921701E0921801F0921901B0
:101630008AE090E00E94610120E030E04AEF53E44C
:101640006091F8007091F9008091FA009091FB0090
:101650000E941C0D882314F31092030110920201C2
:101660001092F8001092F9001092FA001092FB000C
:10167000D093F700C093F6008091F4009091F500AC
:10168000803891055CF40E94BD000E94BA008091F0
:10169000F4009091F50080389105ACF31092F700BA
:1016A0001092F6001092F5001092F4000E943F0292
:1016B000D093F700C093F6008091F4009091F5006C
:1016C000803891055CF40E94BD000E94BA008091B0
:1016D000F4009091F50080389105ACF31092F7007A
:1016E0001092F6001092F5001092F4001092F8009B
:1016F0001092F9001092FA001092FB00D0930301AF
:10170000C09302010E94A100C0921601D09217015D
:10171000E0921801F09219018AE090E00E946101C4
:1017200020E030E04AEF53E46091F8007091F90056
:101730008091FA009091FB000E941C0D882314F305
:1017400010920301109202011092F8001092F90019
:101750001092FA001092FB001092F7001092F6001F
:101760001092F5001092F4000E943F02D093F7000F
:10177000C093F6008091F4009091F50082349105B9
:101780005CF40E94BD000E94BA008091F400909128
:10179000F50082349105ACF31092F7001092F60038
:1017A0001092F5001092F4001092F8001092F900D7
:1017B0001092FA001092FB00D0930301C093020133
:1017C0000E94A100C0921601D0921701E092180168
:1017D000F09219018AE090E00E94610120E030E07F
:1017E00046E953E46091F8007091F9008091FA00A5
:1017F0009091FB000E941C0D882314F31092F800B6
:101800001092F9001092FA001092FB00D093F700AA
:10181000C093F6008091F4009091F5008038910516
:101820005CF40E94BD000E94BA008091F400909187
:10183000F50080389105ACF31092F7001092F60095
:101840001092F5001092F4000E94DC01D093F70092
:10185000C093F6008091F4009091F50082349105D8
:101860005CF40E94BD000E94BA008091F400909147
:10187000F50082349105ACF31092F7001092F60057
:101880001092F5001092F4001092F8001092F900F6
:101890001092FA001092FB00D0930301C093020152
:1018A0000E94A100C0921601D0921701E092180187
:1018B000F09219018AE090E00E94610120E030E09E
:1018C00046E953E46091F8007091F9008091FA00C4
:1018D0009091FB000E941C0D882314F31092F800D5
:1018E0001092F9001092FA001092FB0010933E0142
:1018F00085CCD093F700C093F6008091F4009091CE
:10190000F500823491055CF40E94BD000E94BA008B
:101910008091F4009091F50082349105ACF310921F
:10192000F7001092F6001092F5001092F400109358
:101930003E0164CC0E94810110933E015FCC009374
:101940003E015CCC1092F7001092F6001092F50068
:101950001092F400D0930301C09302011092F8009A
:101960001092F9001092FA001092FB001ECD505810
:10197000BB27AA270ED075C166D130F06BD120F0FD
:1019800031F49F3F11F41EF45BC10EF4E095E7FBC8
:1019900051C1E92F77D180F3BA1762077307840723
:1019A000950718F071F49EF58FC10EF4E0950B2E9B
:1019B000BA2FA02D0B01B90190010C01CA01A001A1
:1019C0001124FF27591B99F0593F50F4503E68F1FC
:1019D0001A16F040A22F232F342F4427585FF3CF3D
:1019E000469537952795A795F0405395C9F77EF40E
:1019F0001F16BA0B620B730B840BBAF09150A1F057
:101A0000FF0FBB1F661F771F881FC2F70EC0BA0FDC
:101A1000621F731F841F48F4879577956795B79564
:101A2000F7959E3F08F0B3CF9395880F08F099275C
:101A3000EE0F979587950895D9D008F481E0089521
:101A40000CD00FC107D140F0FED030F021F45F3F41
:101A500019F0F0C0511139C1F3C014D198F3992392
:101A6000C9F35523B1F3951B550BBB27AA27621762
:101A70007307840738F09F5F5F4F220F331F441FA7
:101A8000AA1FA9F333D00E2E3AF0E0E830D09150DF
:101A90005040E695001CCAF729D0FE2F27D0660FCC
:101AA000771F881FBB1F261737074807AB07B0E80B
:101AB00009F0BB0B802DBF01FF2793585F4F2AF021
:101AC0009E3F510568F0B6C000C15F3FECF3983E01
:101AD000DCF3869577956795B795F7959F5FC9F77E
:101AE000880F911D9695879597F90895E1E0660F07
:101AF000771F881FBB1F621773078407BA0720F080
:101B0000621B730B840BBA0BEE1F88F7E0950895E8
:101B100004D06894B111D9C00895BCD088F09F5703
:101B200090F0B92F9927B751A0F0D1F0660F771F29
:101B3000881F991F1AF0BA95C9F712C0B13081F009
:101B4000C3D0B1E00895C0C0672F782F8827B85F51
:101B500039F0B93FCCF3869577956795B395D9F76A
:101B60003EF490958095709561957F4F8F4F9F4F74
:101B70000895E89409C097FB3EF490958095709580
:101B800061957F4F8F4F9F4F9923A9F0F92F96E9C9
:101B9000BB279395F695879577956795B795F1113E
:101BA000F8CFFAF4BB0F11F460FF1BC06F5F7F4FDB
:101BB0008F4F9F4F16C0882311F096E911C07723ED
:101BC00021F09EE8872F762F05C0662371F096E8F6
:101BD000862F70E060E02AF09A95660F771F881FC5
:101BE000DAF7880F9695879597F90895990F000869
:101BF000550FAA0BE0E8FEEF16161706E807F907DF
:101C0000C0F012161306E407F50798F0621B730B79
:101C1000840B950B39F40A2661F0232B242B252BFA
:101C200021F408950A2609F4A140A6958FEF811D9D
:101C3000811D089597F99F6780E870E060E008953E
:101C40009FEF80EC089500240A94161617061806D4
:101C50000906089500240A941216130614060506B0
:101C60000895092E0394000C11F4882352F0BB0F41
:101C700040F4BF2B11F460FF04C06F5F7F4F8F4FA4
:101C80009F4F089557FD9058440F551F59F05F3FDF
:101C900071F04795880F97FB991F61F09F3F79F08E
:101CA00087950895121613061406551FF2CF469510
:101CB000F1DF08C0161617061806991FF1CF869592
:101CC0007105610508940895E894BB276627772776
:101CD000CB0197F908958ADF08F48FEF08950BD0B0
:101CE000C0CFB1DF28F0B6DF18F0952309F0A2CFFE
:101CF000A7CF1124EACFC6DFA0F3959FD1F3950FAC
:101D000050E0551F629FF001729FBB27F00DB11D7F
:101D1000639FAA27F00DB11DAA1F649F6627B00D0F
:101D2000A11D661F829F2227B00DA11D621F739FF8
:101D3000B00DA11D621F839FA00D611D221F749F06
:101D40003327A00D611D231F849F600D211D822F4D
:101D5000762F6A2F11249F5750408AF0E1F0882394
:101D60004AF0EE0FFF1FBB1F661F771F881F9150A1
:101D70005040A9F79E3F510570F05CCFA6CF5F3F62
:101D8000ECF3983EDCF3869577956795B795F795D4
:101D9000E7959F5FC1F7FE2B880F911D969587955C
:101DA00097F90895EE0FFF1F0590F491E02D099427
:101DB000AEE0B0E0EEEDFEE00C9480110D891E89DE
:101DC00086E08C831A8309838FEF9FE79E838D8340
:101DD000AE01475E5F4F6F89788DCE0101960E94FC
:101DE000FA0EEF81F885E00FF11F10822E96E4E0E5
:101DF0000C949C11ACE0B0E0E0E0FFE00C947211B8
:101E00007C016B018A01FC0117821682838181FFAC
:101E1000BDC1CE0101964C01F7019381F60193FDFE
:101E2000859193FF81916F01882309F4ABC18532BD
:101E300039F493FD859193FF81916F01853229F4E7
:101E4000B70190E00E94E210E7CF512C312C20E046
:101E50002032A0F48B3269F030F4803259F08332B2
:101E600069F420612CC08D3239F0803339F421605F
:101E700026C02260246023C0286021C027FD27C01F
:101E800030ED380F3A3078F426FF06C0FAE05F9E56
:101E9000300D1124532E13C08AE0389E300D1124CA
:101EA000332E20620CC08E3221F426FD6BC12064DB
:101EB00006C08C3611F4206802C0883641F4F60161
:101EC00093FD859193FF81916F018111C1CF982F6F
:101ED0009F7D9554933028F40C5F1F4FFFE3F983E7
:101EE0000DC0833631F0833771F0833509F05BC064
:101EF00022C0F801808189830E5F1F4F44244394E0
:101F0000512C540115C03801F2E06F0E711CF8011C
:101F1000A080B18026FF03C0652D70E002C06FEF86
:101F20007FEFC5012C870E94D7102C0183012C85DF
:101F30002F77222E17C03801F2E06F0E711CF801C6
:101F4000A080B18026FF03C0652D70E002C06FEF56
:101F50007FEFC5012C870E94CC102C012C852068B6
:101F6000222E830123FC1BC0832D90E048165906C6
:101F7000B0F4B70180E290E00E94E2103A94F4CF0E
:101F8000F50127FC859127FE81915F01B70190E063
:101F90000E94E21031103A94F1E04F1A51084114B6
:101FA000510471F7E5C0843611F0893639F5F8012E
:101FB00027FF07C060817181828193810C5F1F4F71
:101FC00008C060817181882777FD8095982F0E5F0A
:101FD0001F4F2F76B22E97FF09C090958095709570
:101FE00061957F4F8F4F9F4F2068B22E2AE030E0DF
:101FF000A4010E941411A82EA81844C0853729F402
:102000002F7EB22E2AE030E025C0F22FF97FBF2EBE
:102010008F36C1F018F4883579F0B4C0803719F0E4
:10202000883721F0AFC02F2F2061B22EB4FE0DC033
:102030008B2D8460B82E09C024FF0AC09F2F9660A4
:10204000B92E06C028E030E005C020E130E002C033
:1020500020E132E0F801B7FE07C060817181828122
:1020600093810C5F1F4F06C06081718180E090E01A
:102070000E5F1F4FA4010E941411A82EA818FB2D5B
:10208000FF77BF2EB6FE0BC02B2D2E7FA51450F46C
:10209000B4FE0AC0B2FC08C02B2D2E7E05C07A2CDF
:1020A0002B2D03C07A2C01C0752C24FF0DC0FE011E
:1020B000EA0DF11D8081803311F4297E09C022FFD1
:1020C00006C07394739404C0822F867809F07394C9
:1020D00023FD13C020FF06C05A2C731418F4530CB0
:1020E0005718732C731468F4B70180E290E02C87C2
:1020F0000E94E21073942C85F5CF731410F43718F6
:1021000001C0312C24FF12C0B70180E390E02C877E
:102110000E94E2102C8522FF17C021FF03C088E532
:1021200090E002C088E790E0B7010CC0822F86786B
:1021300059F021FD02C080E201C08BE227FD8DE253
:10214000B70190E00E94E210A51438F4B70180E3D3
:1021500090E00E94E2105A94F7CFAA94F401EA0D9D
:10216000F11D8081B70190E00E94E210A110F5CF2F
:10217000332009F451CEB70180E290E00E94E210D2
:102180003A94F6CFF7018681978102C08FEF9FEFD7
:102190002C96E2E10C948E11FC0105906150704088
:1021A0000110D8F7809590958E0F9F1F0895FC0120
:1021B0006150704001900110D8F7809590958E0F76
:1021C0009F1F08950F931F93CF93DF93182F092F0D
:1021D000EB018B8181FD03C08FEF9FEF20C082FF59
:1021E00010C04E815F812C813D81421753077CF4E2
:1021F000E881F9819F012F5F3F4F39832883108346
:1022000006C0E885F985812F0995892B29F72E814C
:102210003F812F5F3F4F3F832E83812F902FDF9190
:10222000CF911F910F910895FA01AA27283051F1FB
:10223000203181F1E8946F936E7F6E5F7F4F8F4FF7
:102240009F4FAF4FB1E03ED0B4E03CD0670F781F56
:10225000891F9A1FA11D680F791F8A1F911DA11D3B
:102260006A0F711D811D911DA11D20D009F4689474
:102270003F912AE0269F11243019305D3193DEF61C
:10228000CF010895462F4770405D4193B3E00FD0D2
:10229000C9F7F6CF462F4F70405D4A3318F0495DBD
:1022A00031FD4052419302D0A9F7EACFB4E0A695A0
:1022B0009795879577956795BA95C9F700976105C2
:1022C000710508959B01AC010A2E06945795479518
:1022D00037952795BA95C9F7620F731F841F951F0D
:1022E000A01D08952F923F924F925F926F927F921E
:1022F0008F929F92AF92BF92CF92DF92EF92FF9216
:102300000F931F93CF93DF93CDB7DEB7CA1BDB0BC1
:102310000FB6F894DEBF0FBECDBF09942A88398866
:1023200048885F846E847D848C849B84AA84B9846D
:10233000C884DF80EE80FD800C811B81AA81B98179
:10234000CE0FD11D0FB6F894DEBF0FBECDBFED018D
:062350000895F894FFCF90
:10235600000080400000803F56616C7565203D207E
:1023660025640050574D20496E697469616C697A1D
:1023760065640074696D6572203020776173206929
:102386006E697469616C697A6564000A2054696DC6
:10239600657220322077617320696E697469616C99
:1023A60069736564004C3A00523A0078756E69614B
:1023B600000A2053544152542041444A5553542054
:1023C6000A004C6574732066696E64207468652023
:1023D6006C696E6500466F756E6420697421000035
:00000001FF
